:020000040800F2
:10000000F8110020CD010008E5040008AF02000847
:10001000E1040008730300084B070008000000001B
:1000200000000000000000000000000009050008BA
:10003000770300080000000037020008F5050008FB
:10004000E7010008E7010008E7010008E7010008F0
:10005000E7010008E7010008E7010008E7010008E0
:10006000E7010008E7010008E7010008E7010008D0
:10007000E7010008E7010008E7010008E7010008C0
:10008000E7010008E7010008E7010008E7010008B0
:10009000E7010008E7010008E7010008E7010008A0
:1000A000E7010008E7010008E7010008E701000890
:1000B000E7010008E7010008E7010008E701000880
:1000C000E7010008E7010008E7010008E701000870
:1000D000E701000865060008E7010008E7010008DD
:1000E000E7010008E7010008E7010008E701000850
:1000F000E7010008E7010008E7010008E701000840
:10010000E7010008E7010008E7010008E70100082F
:10011000E7010008E7010008E7010008E70100081F
:10012000E7010008E7010008E7010008E70100080F
:1001300000F002F800F03AF80AA090E8000C8244BF
:100140008344AAF10107DA4501D100F02FF8AFF29C
:10015000090EBAE80F0013F0010F18BFFB1A43F0A5
:1001600001031847F41D0000141E0000103A24BFBC
:1001700078C878C1FAD8520724BF30C830C144BF0C
:1001800004680C607047000000230024002500264E
:10019000103A28BF78C1FBD8520728BF30C148BFEA
:1001A0000B6070471FB51FBD10B510BD00F0ABF858
:1001B0001146FFF7F7FF00F0D5F800F0C9F803B4D7
:1001C000FFF7F2FF03BC00F06DFB00000948804719
:1001D00009480047FEE7FEE7FEE7FEE7FEE7FEE729
:1001E000FEE7FEE7FEE7FEE704480549034A054B44
:1001F000704700000506000831010008F80D0020D6
:10020000F8110020F80D0020EFF3108072B670474F
:1002100080F310887047334A1368012B04D04FF0E5
:1002200001031360304A1060304A116030484FF0CB
:10023000805101607047EFF3108272B6294801685F
:1002400091B14FF0000101602748016829B1EFF337
:10025000098121E9F00F00680160244909680968F3
:10026000B1E8F00F81F3098882F310884EF0040E94
:1002700070471E4908601C494FF00000086019498A
:100280004FF0010008601B484FF47F01D0F80020B8
:1002900041EA0201016016484FF0805101601648A2
:1002A0000068006880F3088861B662B670471EF087
:1002B000040F0CBFEFF30880EFF3098020E9F00F83
:1002C00040F804ED1EF0040F0CBF80F3088880F3A3
:1002D000098800B500F09AFD5DF804EB4EF0040EBD
:1002E00070470000240000201C0000202000002097
:1002F00004ED00E020ED00E008ED00E070477047FD
:10030000704770477047754600F028F8AE46050004
:100310006946534620F00700854618B020B5FFF720
:1003200063FFBDE820404FF000064FF000074FF09C
:1003300000084FF0000B21F00701AC46ACE8C00903
:10034000ACE8C009ACE8C009ACE8C0098D4670470C
:100350000446AFF300802046FFF731FF00487047A6
:10036000980D002010B5FFF74FFF01F033FD00207E
:1003700010BD00BFFEE770472DE9F04102460025A1
:100380000026002000230024002791F803C00CF071
:100390000F0591F803C00CF0100CBCF1000F03D056
:1003A00091F802C04CEA050591F800C0BCF1000FBD
:1003B00031D0146800202BE04FF0010C0CFA00F350
:1003C000B1F800C00CEA03069E4220D183004FF032
:1003D0000F0C0CFA03F7BC4305FA03FC4CEA0404C7
:1003E00091F803C0BCF1280F06D14FF0010C0CFAB4
:1003F00000FCC2F814C00AE091F803C0BCF1480F39
:1004000005D14FF0010C0CFA00FCC2F810C0401CE2
:100410000828D1D31460B1F800C0BCF1FF0F34DD5F
:10042000546800202EE000F1080C4FF0010808FA93
:100430000CF3B1F800C00CEA03069E4221D1830000
:100440004FF00F0C0CFA03F7BC4305FA03FC4CEA1F
:10045000040491F803C0BCF1280F05D100F1080C89
:1004600008FA0CF8C2F8148091F803C0BCF1480FE8
:1004700007D100F1080C4FF0010808FA0CF8C2F897
:100480001080401C0828CED35460BDE8F081016183
:100490007047000008B50121482000F025F8202011
:1004A000ADF8000010208DF8030003208DF8020045
:1004B00069460948FFF760FF20210748FFF7E7FF7B
:1004C0002020ADF8000069460448FFF755FF2021C1
:1004D0000248FFF7DCFF08BD000C01400018014096
:1004E00000BFFEE77047000029B1064A9269024347
:1004F000044B9A6104E0034A92698243014B9A617A
:100500007047000000100240704710B500F002F87C
:1005100010BD00000CB50020019000903348006829
:1005200040F480303149086000BF3048006800F472
:10053000003000900198401C0190009818B9019873
:10054000B0F5A06FF1D12948006800F4003010B177
:100550000120009001E0002000900098012843D184
:100560002348006840F010002149086008460068F0
:1005700020F0030008600846006840F002000860B0
:100580001A4840681949486008464068486008466B
:10059000406840F4806048600846406820F47C1061
:1005A00048600846406840F4E81048600846006823
:1005B00040F08070086000BF0C48006800F00070D8
:1005C0000028F9D00948406820F003000749486036
:1005D0000846406840F00200486000BF0348406899
:1005E00000F00C000828F9D10CBD000000100240FA
:1005F0000020024010B500F02FFD01F021F900F0BD
:1006000041FD10BD10B51348006840F001001149CC
:10061000086008464068104908400E49486008468E
:1006200000680E4908400B4908600846006820F43D
:10063000802008600846406820F4FE0048604FF4BF
:100640001F008860FFF761FF4FF0006004490860F9
:1006500010BD0000001002400000FFF8FFFFF6FE92
:1006600008ED00E010B540F225511D4800F03EF8BD
:1006700010B31B4800F064F8C4B21A48008800F4B4
:100680000040C8B91748008800F4804060B10A2CC7
:1006900003D000201349088020E01248008840F46D
:1006A00000401049088019E00D2C06D10D48008843
:1006B00040F480400B49088010E00A480088C0F3ED
:1006C0000D0009490C5407480088401C0549088062
:1006D00008460088C72801DD0020088010BD000002
:1006E0000038014018000020A009002070B5024623
:1006F000002400230025002040F66A16B14200D1F4
:1007000000BFC1F3421501F01F03012606FA03F3EF
:10071000012D02D19689334006E0022D02D1168ABE
:10072000334001E0968A33400C12012606FA04F4A5
:100730001688344013B10CB1012000E0002070BDD8
:1007400001468888C0F30800704700BFFEE700003C
:10075000014609B900207047C8B220B1C8B20E4A9C
:10076000105C401CF7E701F47F4028B10A48C1F350
:100770000722805C0930EEE701F47F0028B10648CB
:10078000C1F30742805C1130E5E7034800EB1160DC
:1007900000781930DFE70000241E000803490868CC
:1007A000884201D0012070470020FCE79C00002017
:1007B0002DE9FC5F04468B4615461E46DDE90C9A82
:1007C000DDE90E7804F114004060006000BF1C34C5
:1007D0006560A660C4F80C90C4F810A02321D4E989
:1007E000030200F0B8FCD4E9033C63441A1F0F4B2A
:1007F000D4E9010100F00AFC2060A77667760020AA
:10080000E061C4F82080C4F82480606120766065CF
:10081000A0651C3C00902346054A2146019004F146
:10082000440001F08FF80020BDE8FC9F711500081E
:10083000B11700082DE9F04704460E4617469846C2
:10084000DDF8209084F80990607A20F00100607251
:10085000E66127620020A062C4F82480002506E03B
:1008600004F1140101EBC50000F053FC6D1C012DD7
:10087000F6DBBDE8F08710B50246002001460EE029
:1008800002F1140303EBC100D0E900436360D0E937
:10089000003423604060006000BF481C014601290D
:1008A000EEDB10BD014600BF704700000CE00020E9
:1008B00006490860142000F054FE01200449C1F8E4
:1008C0009401142000F04DFEF1E7000094812142D4
:1008D000008021420CE0002006490860322000F030
:1008E00040FE01200449C1F89401322000F039FE95
:1008F000F1E7000094012342000023421FB5FFF7F7
:10090000C9FD142003214FF48062114BCDE9003260
:10091000CDE9021000230F4A0FA1114800F0B0FEEC
:100920000F4800F00DFF142002214A020D4BCDE9C3
:100930000032CDE9021000230B4A0CA10D4800F053
:100940009FFE0C4800F0FCFE002004B010BD00002B
:10095000A0010020AD0800086C65643000000000B4
:10096000B0000020A0050020D50800086C656431A7
:10097000000000002801002010B5044600F0F8F83F
:10098000FFF7BCFF10BD00002DE9F04F85B00D460C
:100990009C46DDE90F740E9B04F04008B8F1000F8F
:1009A00002D0DFF8688101E0DFF86481CDF80080D3
:1009B00004F01008B8F1000F01D024F0010404F095
:1009C0000108B8F1000F02D04FF0300801E04FF0FD
:1009D0002008C246002604F00208B8F1000F11D02A
:1009E000002A02DA2D2652420CE004F00408B8F185
:1009F000000F01D02B2605E004F00808B8F1000F25
:100A000000D02026002142B94FF0300B8846491C07
:100A10000DF1040909F808B01DE01AE0E146B9F14A
:100A20000A0F08D14FF00A0BB2FBFBFE0BFB1E288E
:100A3000B2FBFBF202E002F00F08120900BFDDF882
:100A4000009019F808B08846491C0DF1040909F80E
:100A500008B0002AE2D1B94200DD0F46DB1B04F0EA
:100A60001108B8F1000F10D116B1002B00DD5B1E8C
:100A700006E0A84203D84FF0200880F80080401C10
:100A8000B3F10008A3F10103F3DC26B1A84201D8B9
:100A900006705B1E401C04F01008B8F1000F0AD16C
:100AA00004E0A84201D880F800A0401CB3F100087F
:100AB000A3F10103F5DC06E0A84203D84FF03008AB
:100AC00080F80080401CB8467F1E8845F4DC08E0B2
:100AD000A84205D80DF1040818F8018080F80080BC
:100AE000401CB1F10008A1F10101F1DC06E0A842CF
:100AF00003D84FF0200880F80080401CB3F10008B4
:100B0000A3F10103F3DC05B0BDE8F08F351F000849
:100B1000241F00087FB50A4C14200221CA01094B8A
:100B2000CDE90032CDE902100023074A07A1204693
:100B300000F0A6FD0546204600F002FE7FBD000045
:100B4000680B0020680A0020790900086D61696E51
:100B50000000000010B5044C02E020688047241D0E
:100B600002488442F9D310BD4C1F0008501F0008F2
:100B700010B5044C02E020688047241D02488442DE
:100B8000F9D310BD501F0008541F000870B505466A
:100B90000A480668284600F02EF8044664B1074863
:100BA000006818B10548006800F00AF843212046A3
:100BB00000F04AF801480460304670BD380000205B
:100BC00070B504460025A07E08B9681E70BDA07EE1
:100BD000401EA076A07E08B10020F7E7E06A18B1B9
:100BE0002046E16A884705460DB1A81D08B90020D6
:100BF00020832846EAE72DE9F041064600F078FD1B
:100C000008B100F09BF8082000F0E0FA05466C6897
:100C100010E0A4F10C0708223146384600F025FC0C
:100C200038B900F065FD08B100F098F83846BDE825
:100C3000F0812468281D8442EBD100F059FD08B1F1
:100C400000F08CF80020F2E770B504460E4600254F
:100C5000A07D00F0100088B9606A58B12046616A32
:100C60008847054635B12A46214616A000F01AFAF3
:100C7000284670BDE08A40F01000E082A07D00F0C0
:100C8000080030B1207E00F0080010B16FF00600BF
:100C9000EFE7A06A28B131462046A26A9047054690
:100CA00003E040F60F70304020830DB1A81D30B92D
:100CB000208B40F008002083A07E401CA0762846B0
:100CC000D7E70000546F20696E697469616C697AB6
:100CD00065206465766963653A2573206661696C91
:100CE00065642E20546865206572726F7220636F90
:100CF00064652069732025640A0000002DE9F04135
:100D000004460D4616461F46A07E30B94FF0FF3010
:100D100000F036FB0020BDE8F081606B38B13B4647
:100D2000324629462046D4F834C0E047F3E76FF056
:100D3000050000F025FB0020EDE7000010B5FFF7EF
:100D400063FA044604480088401C00B20249088047
:100D50002046FFF75DFA10BD8C00002010B5FFF7AC
:100D600053FA04460B480088401E00B20949088027
:100D70000846B0F90000002807DC00200880204663
:100D8000FFF746FA00F062FA02E02046FFF740FA69
:100D900010BD00008C00002070B516480068642269
:100DA000B0FBF2F1B1F1807F00D31DE021F07F4074
:100DB000401E4FF0E022506150170F22002807DA42
:100DC00013071D0E0C4B00F00F04241F1D5503E0EC
:100DD00013071C0E094B1C5400BF00204FF0E022EB
:100DE00090610720106100BFFFF7B4FE04A0FFF779
:100DF000CDFE70BD0000002018ED00E000E400E032
:100E000075617274320000007047000070B50546CD
:100E10002C1D2E48006838B128462C49096888479F
:100E2000064606B970BD00BF29A0E16B00F03AF993
:100E30002BA0216A00F036F92DA0616A00F032F98A
:100E40002FA0A16A00F02EF931A0E16A00F02AF982
:100E500033A0216800F026F935A0616800F022F97E
:100E600037A0A16800F01EF939A0E16800F01AF976
:100E70003BA0216900F016F93DA0616900F012F96C
:100E80003FA0A16900F00EF941A0E16900F00AF964
:100E900043A0216B00F006F945A0616B00F002F958
:100EA00047A0A16B00F0FEF8287800F0040038B1EC
:100EB00000F01EFC0646314645A000F0F3F802E0C3
:100EC0004BA000F0EFF800BFFEE700002800002074
:100ED0007073723A203078253038780A00000000AC
:100EE0007230303A203078253038780A000000001F
:100EF0007230313A203078253038780A000000000E
:100F00007230323A203078253038780A00000000FC
:100F10007230333A203078253038780A00000000EB
:100F20007230343A203078253038780A00000000DA
:100F30007230353A203078253038780A00000000C9
:100F40007230363A203078253038780A00000000B8
:100F50007230373A203078253038780A00000000A7
:100F60007230383A203078253038780A0000000096
:100F70007230393A203078253038780A0000000085
:100F80007231303A203078253038780A000000007D
:100F90007231313A203078253038780A000000006C
:100FA0007231323A203078253038780A000000005B
:100FB000206C723A203078253038780A0000000022
:100FC0002070633A203078253038780A000000001D
:100FD00068617264206661756C74206F6E2074683D
:100FE000726561643A2025730D0A0D0A0000000045
:100FF00068617264206661756C74206F6E20686130
:101000006E646C65720D0A0D0A000000F0B50446AE
:101010000D461646301D20F00700403801460022DC
:1010200003E00C4F41F82270521C102AF9D30D62D4
:101030004FF0000CC1F824C0C1F828C0C1F82CC082
:10104000C1F830C04B638C634FF0807CC1F83CC06A
:10105000F0BD0000EFBEADDE10B5FFF7D5F80446D9
:1010600004480078401C034908702046FFF7D0F878
:1010700010BD0000300000200148007870470000DB
:101080003000002010B5FFF7BFF804460448007890
:10109000401E034908702046FFF7BAF810BD000053
:1010A000300000200FB438B505A800907F21154806
:1010B000009B049A00F0F2FC04467F2C00D97F24A8
:1010C0001148006818B90F48FFF79EFE15E00E485A
:1010D0000068058B0C480068008B40F040000A490E
:1010E000096808832346074A002107480068FFF77C
:1010F00005FE05480068058300BF0020009038BC4D
:101100005DF814FBD80C002038000020406000601F
:1011100070474060006070470268516002680A6072
:101120000160486070470268516002680A600160AF
:101130004860704701460868884201D10120704725
:101140000020FCE7D0E900215160D0E900121160D5
:10115000406000607047F0B50C460546E6B2042AD0
:1011600015D300F0030797B9014646EA062343EA80
:10117000034304E008C108C108C108C1103A102A9D
:10118000F8D201E008C1121F042AFBD20D4601E08B
:1011900005F8016B1700A2F10102F9D1F0BD70B59D
:1011A000044600202072FFF72FF8054604F10C00DA
:1011B000D0E900215160D0E9001211604060006068
:1011C00000BF2846FFF724F870BD0000024600214A
:1011D0000AE0074800EB01100078904203D1044870
:1011E00000EB01107047491C0529F2DB0020F9E7EC
:1011F0003C0000202DE9F04104460D4616462846E5
:10120000FFF7E4FF074645F08000207208223146D0
:10121000204600F03EF9FEF7F7FF8046381D04F146
:101220000C010268516002680A600160486000BFFA
:101230004046FEF7EDFFBDE8F0810146087A00F078
:10124000800008B1012070470020FCE72DE9F04143
:10125000FEF7DAFF07461B48008868BB1A4800689B
:10126000FFF776FA461E194850F83600A0F114042C
:101270001748006884421BD016490E701448056850
:1012800004601548007848B904F11C0105F11C0000
:10129000FEF7C1FF3846FEF7BBFF0CE004F11C016E
:1012A00005F11C00FEF7B7FF3846FEF7B1FF02E07C
:1012B0003846FEF7ADFF02E03846FEF7A9FFBDE86D
:1012C000F08100008C00002098000020580D0020C4
:1012D00090000020940000203000002070B50446EB
:1012E000FEF792FF054614F8340F20F00F0040F08F
:1012F000010020706278343C0A4B03EBC20004F119
:1013000014014268116042684A604160086000BF91
:101310000549A06B09680843034908602846FEF7A1
:1013200077FF70BD580D00209800002070B504466E
:10133000FEF76AFF054604F11400D0E90021516070
:10134000D0E9001211604060006000BF94F83510D1
:10135000094A02EBC1000168814201D1012100E08C
:10136000002129B10548A16B006888430349086042
:101370002846FEF74DFF70BD580D00209800002054
:1013800070B50446FFF778FE10B10648046070BDE2
:1013900000F0AEF9054615B902480460F7E72C6382
:1013A00000BFF4E73400002008B509A0FFF77AFE7B
:1013B0000AA0FFF777FE12A001231A46032100902E
:1013C00012A0FFF76FFE19A0FFF76CFE08BD00002A
:1013D0000A205C207C202F0A000000002D2052549F
:1013E000202D2020202020546872656164204F70D9
:1013F00065726174696E672053797374656D0A0054
:101400004A616E203231203230313900202F207C69
:10141000205C202020202025642E25642E25642099
:101420006275696C642025730A0000002032303038
:1014300036202D203230313820436F707972696741
:1014400068742062792072742D74687265616420FA
:101450007465616D0A00000001460A4600E0521CF6
:1014600010780028FBD1501A704730B50346002091
:101470000BE011F8015B1C78641B64B2200002D100
:1014800013F8015B05B902E0521E002AF1D100BF3A
:1014900030BD70B50346A2B118460C4600BF14F823
:1014A000016B00F8016B3EB902E0002500F8015B1A
:1014B000551E2A00F9D102E0551E2A00EFD100BFC7
:1014C00000BF184670BD000010B500200B49088011
:1014D000002405E00A4901EBC400FFF717FE641C75
:1014E000082CF7DB07200749087000200649086030
:1014F000064908600648FFF709FE10BD8C00002071
:10150000580D00209400002090000020980000203A
:101510009C00002070B508480068FFF719F9451EC7
:10152000064850F83500A0F114040548046004F1A1
:101530001C00FEF79EFE70BD98000020580D002094
:101540009000002010B5002405E0044901EBC40020
:10155000FFF7DFFD641C002CF7D010BDA4000020B5
:10156000704710B50446204600F0C8F810BD0000D2
:1015700070B512480468FEF747FE05462046FFF79F
:10158000D5FE042084F8340004F1440000F0CAF9C8
:101590002046FFF752FE012805D1206F18B92046DA
:1015A000FFF7FDFD04E004F114010548FFF7B4FD69
:1015B0002846FEF72DFEFFF749FE70BD9000002083
:1015C0009C00002001E000F001F8FCE770B531E07C
:1015D000FEF71AFE0546FFF7E1F818B31848006851
:1015E000A0F1140404F11400D0E900215160D0E905
:1015F000001211604060006000BFFFF79FFB206F8A
:1016000010B12046216F88472046FFF716FE0128BB
:1016100005D1FFF7A3FB2846FEF7FAFD70BDFFF7E3
:101620009DFB03E02846FEF7F3FDF7E72846FEF7AB
:10163000EFFD00BFFFF7B2F80028C9D100BFEDE70A
:101640009C0000201FB5202007218022074BCDE9F8
:101650000032CDE902100023054A06A1074800F038
:101660000FF8064800F06CF81FBD0000580C002071
:10167000C51500087469646C65000000E00B00206B
:101680002DE9FF5F05460C4616461F46DDE910AB07
:10169000DDE90E89224600212846FFF7ABFD3B46D7
:1016A0003246214628468DE8000FFFF781F804B046
:1016B000BDE8F09F70B5044694F8340000F00F00C8
:1016C000022802D04FF0FF3070BDFEF79DFD0546A9
:1016D00004F11400FFF736FD04F1440000F0C6F9F0
:1016E0002846FEF795FD2046FFF7F8FD0020EBE7C2
:1016F00001480068704700009000002031B5FEF7F7
:1017000083FD05460D480468204600F02FF86A4620
:10171000002104F1440000F0E9F804F1440000F075
:1017200029F92846FEF774FDFFF790FD206B801C19
:1017300008B900202063002038BD00009000002080
:1017400010B504463434A078607061780120884078
:101750006060022004F834092046FFF7ABFFFFF772
:10176000C7FF08B1FFF772FD002010BD70B5044639
:1017700094F8340000F00F00012802D04FF0FF3041
:1017800070BDFEF741FD054694F8340020F00F00CF
:1017900040F0020084F834002046FFF7C7FD04F152
:1017A000440000F063F92846FEF732FD0020E7E729
:1017B00070B5044625466FF00100286305F114005A
:1017C000FFF7C0FC2846FFF789FDFFF73FFD70BD1E
:1017D00070B5FEF719FD05461448046894F8340006
:1017E00000F00F0001281CD1D4E90510814218D067
:1017F00004F11400FFF7A6FC94F835200C4B03EB22
:10180000C20004F114014268116042684A604160FC
:10181000086000BF2846FEF7FBFCFFF717FD00201D
:1018200070BD2846FEF7F4FC0020F9E79000002088
:10183000580D002001480068704700002C0000206F
:1018400010B50A480068401C08490860FFF750FFBF
:101850000446206C401E2064206C18B9E06B2064A4
:10186000FFF7B6FF00F004F810BD00002C000020C8
:1018700070B5FFF7DFFF0546FEF7C6FC064628E019
:1018800019480068A0F11404A06A281A6FF00041FA
:1018900088421DD22046FEF7EEFFD4E907108847A4
:1018A000FFF7C8FF0546607A00F0020058B1607A81
:1018B00000F0010038B1607A20F00100607220462B
:1018C00000F058F805E0607A20F00100607200E056
:1018D00004E00548FFF72EFC0028D1D000BF3046B9
:1018E000FEF796FC70BD0000A4000020034649B13D
:1018F000012904D0022908D0032910D10AE0586A2E
:1019000010600CE01068586209E0587A20F002007C
:10191000587204E0587A40F00200587200BF00BFCD
:101920000020704770B50446FEF76EFC0546204661
:10193000FEF7A1FF2846FEF76BFC2046FFF72FFCC1
:10194000002070BD2DE9F84307460C4615461E469B
:10195000DDE90889224609213846FFF74BFC43465A
:10196000324629463846CDF80090FEF763FFBDE8C1
:10197000F88300002DE9F8430546FEF745FC804654
:101980002846FEF778FF687A20F00100687240462A
:10199000FEF73EFCFFF74EFF696A0844A862FEF7B7
:1019A00033FC80462F4F009700242AE019E05DF8B1
:1019B00024201168142202EBC402881A826AAB6ADE
:1019C000D21A00D108E0826AAB6AD21A6FF00043E3
:1019D0009A4200D20CE000BF5DF8240000684DF888
:1019E00024005DF8240007EBC40149688842DED179
:1019F00000BF2CB15DF824000830611C4DF82100B7
:101A0000641C002CD2D018480068401C164908609D
:101A10000846066805F114010098FFF784FB0224CC
:101A200012E006F0030060B9C4F1010305F11402ED
:101A300002EBC301C4F101025DF82200FFF773FB62
:101A400000E003E0B608641C012CEAD900BF687A04
:101A500040F0010068724046FEF7DAFB0020BDE866
:101A6000F8830000A4000020AC00002070B50446FC
:101A7000607A00F0010010B94FF0FF3070BDFEF742
:101A8000C3FB05462046FEF7F6FE2846FEF7C0FBE0
:101A9000607A20F0010060720020EFE72DE9FF4F2F
:101AA00089B0804644460A984044461E464504D2C2
:101AB0004FF0FF36A6EB08000A906FE10B98007814
:101AC000252806D0B44202D80B9800782070641CF8
:101AD00061E1002526E00B98401C0B900B980078E4
:101AE0002D2802D145F010051CE00B9800782B281A
:101AF00002D145F0040515E00B980078202802D1AA
:101B000045F008050EE00B980078232802D145F037
:101B1000200507E00B980078302802D145F0010538
:101B200000E000E0D7E700BF4FF0FF370B980078E8
:101B300030380A2804D20BA800F061F907460EE0FD
:101B40000B9800782A280AD10B98401C0B900C980F
:101B500080C80C90002F02DA7F4245F010054FF04C
:101B6000FF390B9800782E281CD10B98401C0B9045
:101B70000B98007830380A2804D20BA800F03FF9FF
:101B800081460AE00B9800782A2806D10B98401C61
:101B90000B900C9850F8049B0C90B9F1000F01DAEF
:101BA0004FF00009002004900B980078682803D0BB
:101BB0000B9800786C2805D10B98007804900B984E
:101BC000401C0B900A2005900B9800786F2875D068
:101BD0000CDC632813D004DC252870D058286FD182
:101BE0008DE064286DD06928F9D18FE070286AD023
:101BF000732825D0752878D07828F0D182E005F0B8
:101C0000100040B904E0B44201D820202070641CC8
:101C1000781E071EF7DC0C9810F8041B0C90C8B255
:101C20000790B44201D807982070641C04E0B442C5
:101C300001D820202070641C781E071EF7DCAAE063
:101C40000C98006806900C98001D0C90069808B936
:101C50005AA006900698FFF7FFFB8346B9F1000FE4
:101C600002DDCB4500DDCB4605F0100048B904E0AD
:101C7000B44201D820202070641C38467F1E58458D
:101C8000F6DC002008900BE0B44202D806980078F9
:101C90002070641C0698401C06900898401C089010
:101CA00008985845F0DB04E0B44201D820202070A9
:101CB000641C38467F1E5845F6DC6CE01CE015E0DD
:101CC00028E022E0FFE7781C10B9082745F001055D
:101CD000CDE9007902950C9804C8102331460C9088
:101CE0002046FEF751FE044655E012E0B44201D80A
:101CF00025202070641C4EE0082005901DE045F072
:101D0000400500BF1020059017E000BF45F0020518
:101D100000BF12E0B44201D825202070641C0B984B
:101D2000007830B1B44202D80B9800782070641C5F
:101D300002E00B98401E0B902DE000BF04986C2829
:101D400007D10C9850F804AB0C9005F00200B8B124
:101D500016E0049868280BD10C9830F8041B1FFA81
:101D600081FA0C9005F0020050B10FFA8AFA07E0F0
:101D70000C9850F804AB0C9005F0020000B100BFC5
:101D8000CDE900790295524631462046059BFEF783
:101D9000FBFD044600BF0B98401C0B900B9800788D
:101DA00000287FF48BAEB44201D8207001E00020FF
:101DB0003070A4EB08000DB0BDE8F08F284E554CF4
:101DC0004C29000000207047002070470020704719
:101DD0000020704710B5FEF717FAFEF7DDFFFFF79A
:101DE000E3FAFFF7AFFBFFF76FFBFEF793FEFFF79A
:101DF000B7FBFFF727FCFFF78DFB002010BD014666
:101E0000002009E00B685A1C0A601A7800EB800376
:101E100002EB4302A2F130000A681278303A0A2A33
:101E2000F0D3704700000100020001000300010030
:101E30000200010004000100020001000300010093
:101E40000200010005000100020001000300010082
:101E50000200010004000100020001000300010073
:101E60000200010006000100020001000300010061
:101E70000200010004000100020001000300010053
:101E80000200010005000100020001000300010042
:101E90000200010004000100020001000300010033
:101EA0000200010007000100020001000300010020
:101EB0000200010004000100020001000300010013
:101EC0000200010005000100020001000300010002
:101ED00002000100040001000200010003000100F3
:101EE00002000100060001000200010003000100E1
:101EF00002000100040001000200010003000100D3
:101F000002000100050001000200010003000100C1
:101F100002000100040001000200010003000100B2
:101F200002000100303132333435363738396162DE
:101F300063646566003031323334353637383941C1
:101F40004243444546000000D11D0008C91D000859
:101F5000C51D0008CD1D0008781F000800000020E6
:101F6000B00000006C01000828200008B00000202C
:101F7000481100008801000800A24A040000000087
:101F80000000000001020304060708090000000029
:101F90000000000000000000000000000000000041
:101FA0000000000000000000000000000000000031
:101FB0000000000000000000400000204000002061
:101FC00078000000010000005000002050000020B8
:101FD00020000000040000006000002060000020DD
:101FE0003000000008000000700000207000002099
:101FF0004000000009000000800000208000002058
:102000002C000000000000000000000000000000A4
:1020100000000000000000000000000000000000C0
:082020000000000000000000B8
:04000005080001CD21
:00000001FF
